{"src/DynoSeller.sol":{"DynoSeller":{"abi":[{"inputs":[{"internalType":"contract DynoToken","name":"_dyno","type":"address"},{"internalType":"address","name":"_usdc","type":"address"},{"internalType":"address","name":"_owner","type":"address"}],"stateMutability":"nonpayable","type":"constructor"},{"inputs":[],"name":"AlreadyInitialized","type":"error"},{"inputs":[],"name":"NewOwnerIsZeroAddress","type":"error"},{"inputs":[],"name":"NoHandoverRequest","type":"error"},{"inputs":[],"name":"Unauthorized","type":"error"},{"anonymous":false,"inputs":[{"indexed":true,"internalType":"address","name":"pendingOwner","type":"address"}],"name":"OwnershipHandoverCanceled","type":"event"},{"anonymous":false,"inputs":[{"indexed":true,"internalType":"address","name":"pendingOwner","type":"address"}],"name":"OwnershipHandoverRequested","type":"event"},{"anonymous":false,"inputs":[{"indexed":true,"internalType":"address","name":"oldOwner","type":"address"},{"indexed":true,"internalType":"address","name":"newOwner","type":"address"}],"name":"OwnershipTransferred","type":"event"},{"anonymous":false,"inputs":[{"indexed":true,"internalType":"address","name":"user","type":"address"},{"indexed":true,"internalType":"uint256","name":"roles","type":"uint256"}],"name":"RolesUpdated","type":"event"},{"anonymous":false,"inputs":[{"indexed":false,"internalType":"address","name":"admin","type":"address"}],"name":"adminset","type":"event"},{"anonymous":false,"inputs":[{"indexed":false,"internalType":"address","name":"owner","type":"address"}],"name":"ownerset","type":"event"},{"anonymous":false,"inputs":[{"indexed":false,"internalType":"address","name":"user","type":"address"},{"indexed":false,"internalType":"uint256","name":"role","type":"uint256"}],"name":"role_granted","type":"event"},{"anonymous":false,"inputs":[{"indexed":false,"internalType":"address","name":"user","type":"address"},{"indexed":false,"internalType":"uint256","name":"role","type":"uint256"}],"name":"role_revoked","type":"event"},{"inputs":[],"name":"ADMIN_ROLE","outputs":[{"internalType":"uint256","name":"","type":"uint256"}],"stateMutability":"view","type":"function"},{"inputs":[],"name":"SUPPLIER_ROLE","outputs":[{"internalType":"uint256","name":"","type":"uint256"}],"stateMutability":"view","type":"function"},{"inputs":[],"name":"cancelOwnershipHandover","outputs":[],"stateMutability":"payable","type":"function"},{"inputs":[{"internalType":"uint256","name":"_roles","type":"uint256"}],"name":"checkRoles","outputs":[],"stateMutability":"view","type":"function"},{"inputs":[{"internalType":"address","name":"pendingOwner","type":"address"}],"name":"completeOwnershipHandover","outputs":[],"stateMutability":"payable","type":"function"},{"inputs":[],"name":"dyno","outputs":[{"internalType":"contract DynoToken","name":"","type":"address"}],"stateMutability":"view","type":"function"},{"inputs":[{"internalType":"address","name":"user_","type":"address"},{"internalType":"uint256","name":"roles_","type":"uint256"}],"name":"grantRoles","outputs":[],"stateMutability":"payable","type":"function"},{"inputs":[{"internalType":"address","name":"user","type":"address"},{"internalType":"uint256","name":"roles","type":"uint256"}],"name":"hasAllRoles","outputs":[{"internalType":"bool","name":"","type":"bool"}],"stateMutability":"view","type":"function"},{"inputs":[{"internalType":"address","name":"user","type":"address"},{"internalType":"uint256","name":"roles","type":"uint256"}],"name":"hasAnyRole","outputs":[{"internalType":"bool","name":"","type":"bool"}],"stateMutability":"view","type":"function"},{"inputs":[{"internalType":"address","name":"_admin","type":"address"}],"name":"makeAdmin","outputs":[],"stateMutability":"nonpayable","type":"function"},{"inputs":[],"name":"owner","outputs":[{"internalType":"address","name":"result","type":"address"}],"stateMutability":"view","type":"function"},{"inputs":[{"internalType":"address","name":"pendingOwner","type":"address"}],"name":"ownershipHandoverExpiresAt","outputs":[{"internalType":"uint256","name":"result","type":"uint256"}],"stateMutability":"view","type":"function"},{"inputs":[],"name":"renounceOwnership","outputs":[],"stateMutability":"payable","type":"function"},{"inputs":[{"internalType":"uint256","name":"roles","type":"uint256"}],"name":"renounceRoles","outputs":[],"stateMutability":"payable","type":"function"},{"inputs":[],"name":"requestOwnershipHandover","outputs":[],"stateMutability":"payable","type":"function"},{"inputs":[{"internalType":"address","name":"user_","type":"address"},{"internalType":"uint256","name":"roles_","type":"uint256"}],"name":"revokeRoles","outputs":[],"stateMutability":"payable","type":"function"},{"inputs":[{"internalType":"address","name":"","type":"address"}],"name":"roles","outputs":[{"internalType":"uint256","name":"","type":"uint256"}],"stateMutability":"view","type":"function"},{"inputs":[{"internalType":"address","name":"user","type":"address"}],"name":"rolesOf","outputs":[{"internalType":"uint256","name":"","type":"uint256"}],"stateMutability":"view","type":"function"},{"inputs":[{"internalType":"uint256","name":"amount","type":"uint256"}],"name":"swapForUSDC","outputs":[],"stateMutability":"nonpayable","type":"function"},{"inputs":[{"internalType":"address","name":"newOwner","type":"address"}],"name":"transferOwnership","outputs":[],"stateMutability":"payable","type":"function"},{"inputs":[],"name":"usdc","outputs":[{"internalType":"contract IUSDC","name":"","type":"address"}],"stateMutability":"view","type":"function"},{"stateMutability":"payable","type":"receive"}],"evm":{"bytecode":{"linkReferences":{},"object":"60806040523480156200001157600080fd5b5060405162001578380380620015788339818101604052810190620000379190620002a5565b6200004881620000d260201b60201c565b826000806101000a81548173ffffffffffffffffffffffffffffffffffffffff021916908373ffffffffffffffffffffffffffffffffffffffff16021790555081600160006101000a81548173ffffffffffffffffffffffffffffffffffffffff021916908373ffffffffffffffffffffffffffffffffffffffff1602179055505050506200032f565b620000e3816200011f60201b60201c565b7f6f0ca3c021d03daefc1e88745e6faecc6726274689554c9d7512e2c2c0567dfe8160405162000114919062000312565b60405180910390a150565b6200012f620001f160201b60201c565b1562000197577fffffffffffffffffffffffffffffffffffffffffffffffffffffffff748739278160601b60601c91508181547f8be0079c531659141344cd1fd0a4f28419497f9722a3daafe3b4186f6b6457e0600080a3811560ff1b8217815550620001ee565b7fffffffffffffffffffffffffffffffffffffffffffffffffffffffff748739278160601b60601c91508181547f8be0079c531659141344cd1fd0a4f28419497f9722a3daafe3b4186f6b6457e0600080a3818155505b50565b600090565b600080fd5b600073ffffffffffffffffffffffffffffffffffffffff82169050919050565b60006200022882620001fb565b9050919050565b60006200023c826200021b565b9050919050565b6200024e816200022f565b81146200025a57600080fd5b50565b6000815190506200026e8162000243565b92915050565b6200027f816200021b565b81146200028b57600080fd5b50565b6000815190506200029f8162000274565b92915050565b600080600060608486031215620002c157620002c0620001f6565b5b6000620002d1868287016200025d565b9350506020620002e4868287016200028e565b9250506040620002f7868287016200028e565b9150509250925092565b6200030c816200021b565b82525050565b600060208201905062000329600083018462000301565b92915050565b611239806200033f6000396000f3fe60806040526004361061012e5760003560e01c8063514e62fc116100ab578063993746421161006f5780639937464214610361578063a29508fc1461039e578063a72b8db9146103c9578063f04e283e146103f2578063f2fde38b1461040e578063fee81cf41461042a57610135565b8063514e62fc146102ba57806354d1f13d146102f7578063715018a61461030157806375b238fc1461030b5780638da5cb5b1461033657610135565b80632d4d0ad7116100f25780632d4d0ad7146101e25780632de948071461020d5780633e413bee1461024a578063472905ca146102755780634a4ee7b11461029e57610135565b8063183a4f6e1461013a5780631bda77e1146101565780631c10893f1461017f5780631cd64df41461019b57806325692962146101d857610135565b3661013557005b600080fd5b610154600480360381019061014f9190610d7b565b610467565b005b34801561016257600080fd5b5061017d60048036038101906101789190610d7b565b610474565b005b61019960048036038101906101949190610e06565b610711565b005b3480156101a757600080fd5b506101c260048036038101906101bd9190610e06565b6107a8565b6040516101cf9190610e61565b60405180910390f35b6101e06107bf565b005b3480156101ee57600080fd5b506101f7610813565b6040516102049190610edb565b60405180910390f35b34801561021957600080fd5b50610234600480360381019061022f9190610ef6565b610837565b6040516102419190610f32565b60405180910390f35b34801561025657600080fd5b5061025f610880565b60405161026c9190610f6e565b60405180910390f35b34801561028157600080fd5b5061029c60048036038101906102979190610ef6565b6108a6565b005b6102b860048036038101906102b39190610e06565b610938565b005b3480156102c657600080fd5b506102e160048036038101906102dc9190610e06565b6109ce565b6040516102ee9190610e61565b60405180910390f35b6102ff6109e6565b005b610309610a22565b005b34801561031757600080fd5b50610320610a36565b60405161032d9190610f32565b60405180910390f35b34801561034257600080fd5b5061034b610a3b565b6040516103589190610f98565b60405180910390f35b34801561036d57600080fd5b5061038860048036038101906103839190610ef6565b610a64565b6040516103959190610f32565b60405180910390f35b3480156103aa57600080fd5b506103b3610a7c565b6040516103c09190610f32565b60405180910390f35b3480156103d557600080fd5b506103f060048036038101906103eb9190610d7b565b610a81565b005b61040c60048036038101906104079190610ef6565b610a8d565b005b61042860048036038101906104239190610ef6565b610ace565b005b34801561043657600080fd5b50610451600480360381019061044c9190610ef6565b610af8565b60405161045e9190610f32565b60405180910390f35b6104713382610b13565b50565b60008054906101000a900473ffffffffffffffffffffffffffffffffffffffff1673ffffffffffffffffffffffffffffffffffffffff166370a08231336040518263ffffffff1660e01b81526004016104cd9190610f98565b602060405180830381865afa1580156104ea573d6000803e3d6000fd5b505050506040513d601f19601f8201168201806040525081019061050e9190610fc8565b811015610550576040517f08c379a000000000000000000000000000000000000000000000000000000000815260040161054790611052565b60405180910390fd5b60008054906101000a900473ffffffffffffffffffffffffffffffffffffffff1673ffffffffffffffffffffffffffffffffffffffff166323b872dd3330846040518463ffffffff1660e01b81526004016105ad93929190611072565b6020604051808303816000875af11580156105cc573d6000803e3d6000fd5b505050506040513d601f19601f820116820180604052508101906105f091906110d5565b61062f576040517f08c379a00000000000000000000000000000000000000000000000000000000081526004016106269061114e565b60405180910390fd5b600160009054906101000a900473ffffffffffffffffffffffffffffffffffffffff1673ffffffffffffffffffffffffffffffffffffffff1663a9059cbb33836040518363ffffffff1660e01b815260040161068c92919061116e565b6020604051808303816000875af11580156106ab573d6000803e3d6000fd5b505050506040513d601f19601f820116820180604052508101906106cf91906110d5565b61070e576040517f08c379a0000000000000000000000000000000000000000000000000000000008152600401610705906111e3565b60405180910390fd5b50565b600161071c81610b23565b6107268383610b5a565b60028060008573ffffffffffffffffffffffffffffffffffffffff1673ffffffffffffffffffffffffffffffffffffffff168152602001908152602001600020819055507fb15c52cb3537c8c419f7d18c14643c18e2a220e4595ef9951c7606287a7d247f838360405161079b92919061116e565b60405180910390a1505050565b600081826107b585610837565b1614905092915050565b60006107c9610b6a565b67ffffffffffffffff164201905063389a75e1600c5233600052806020600c2055337fdbf36a107da19e49527a7176a1babf963b4b0ff8cde35ee35d6cd8f1f9ac7e1d600080a250565b60008054906101000a900473ffffffffffffffffffffffffffffffffffffffff1681565b6000600260008373ffffffffffffffffffffffffffffffffffffffff1673ffffffffffffffffffffffffffffffffffffffff168152602001908152602001600020549050919050565b600160009054906101000a900473ffffffffffffffffffffffffffffffffffffffff1681565b6108ae610b75565b6108b9816001610711565b6001600260008373ffffffffffffffffffffffffffffffffffffffff1673ffffffffffffffffffffffffffffffffffffffff168152602001908152602001600020819055507f4d3c66bed87ba44a967fe349e441514f9004b0f0c63927aa0a59706bcb5fe1388160405161092d9190610f98565b60405180910390a150565b600161094381610b23565b61094d8383610b13565b600260008473ffffffffffffffffffffffffffffffffffffffff1673ffffffffffffffffffffffffffffffffffffffff168152602001908152602001600020600090557fb420a774a5f31ccd70e2a03ddf80f3dd93235e2011fbff00190e5009d6c22a3183836040516109c192919061116e565b60405180910390a1505050565b600080826109db85610837565b161415905092915050565b63389a75e1600c523360005260006020600c2055337ffa7b8eab7da67f412cc9575ed43464468f9bfbae89d1675917346ca6d8fe3c92600080a2565b610a2a610b75565b610a346000610bad565b565b600181565b60007fffffffffffffffffffffffffffffffffffffffffffffffffffffffff7487392754905090565b60026020528060005260406000206000915090505481565b600281565b610a8a81610bf0565b50565b610a95610b75565b63389a75e1600c52806000526020600c208054421115610abd57636f5e88186000526004601cfd5b6000815550610acb81610bad565b50565b610ad6610b75565b8060601b610aec57637448fbae6000526004601cfd5b610af581610bad565b50565b600063389a75e1600c52816000526020600c20549050919050565b610b1f82826000610c19565b5050565b638b78c6d819543314610b5757638b78c6d8600c5233600052806020600c205416610b56576382b429006000526004601cfd5b5b50565b610b6682826001610c19565b5050565b60006202a300905090565b7fffffffffffffffffffffffffffffffffffffffffffffffffffffffff74873927543314610bab576382b429006000526004601cfd5b565b610bb681610c73565b7f6f0ca3c021d03daefc1e88745e6faecc6726274689554c9d7512e2c2c0567dfe81604051610be59190610f98565b60405180910390a150565b638b78c6d8600c5233600052806020600c205416610c16576382b429006000526004601cfd5b50565b638b78c6d8600c52826000526020600c20805483811783610c3c57848216821890505b80835580600c5160601c7f715ad5ce61fc9595c7b415289d59cf203f23a94fa06f04af7e489a0a76e1fe26600080a3505050505050565b610c7b610d3b565b15610ce1577fffffffffffffffffffffffffffffffffffffffffffffffffffffffff748739278160601b60601c91508181547f8be0079c531659141344cd1fd0a4f28419497f9722a3daafe3b4186f6b6457e0600080a3811560ff1b8217815550610d38565b7fffffffffffffffffffffffffffffffffffffffffffffffffffffffff748739278160601b60601c91508181547f8be0079c531659141344cd1fd0a4f28419497f9722a3daafe3b4186f6b6457e0600080a3818155505b50565b600090565b600080fd5b6000819050919050565b610d5881610d45565b8114610d6357600080fd5b50565b600081359050610d7581610d4f565b92915050565b600060208284031215610d9157610d90610d40565b5b6000610d9f84828501610d66565b91505092915050565b600073ffffffffffffffffffffffffffffffffffffffff82169050919050565b6000610dd382610da8565b9050919050565b610de381610dc8565b8114610dee57600080fd5b50565b600081359050610e0081610dda565b92915050565b60008060408385031215610e1d57610e1c610d40565b5b6000610e2b85828601610df1565b9250506020610e3c85828601610d66565b9150509250929050565b60008115159050919050565b610e5b81610e46565b82525050565b6000602082019050610e766000830184610e52565b92915050565b6000819050919050565b6000610ea1610e9c610e9784610da8565b610e7c565b610da8565b9050919050565b6000610eb382610e86565b9050919050565b6000610ec582610ea8565b9050919050565b610ed581610eba565b82525050565b6000602082019050610ef06000830184610ecc565b92915050565b600060208284031215610f0c57610f0b610d40565b5b6000610f1a84828501610df1565b91505092915050565b610f2c81610d45565b82525050565b6000602082019050610f476000830184610f23565b92915050565b6000610f5882610ea8565b9050919050565b610f6881610f4d565b82525050565b6000602082019050610f836000830184610f5f565b92915050565b610f9281610dc8565b82525050565b6000602082019050610fad6000830184610f89565b92915050565b600081519050610fc281610d4f565b92915050565b600060208284031215610fde57610fdd610d40565b5b6000610fec84828501610fb3565b91505092915050565b600082825260208201905092915050565b7f4e6f7420656e6f7567682062616c616e63650000000000000000000000000000600082015250565b600061103c601283610ff5565b915061104782611006565b602082019050919050565b6000602082019050818103600083015261106b8161102f565b9050919050565b60006060820190506110876000830186610f89565b6110946020830185610f89565b6110a16040830184610f23565b949350505050565b6110b281610e46565b81146110bd57600080fd5b50565b6000815190506110cf816110a9565b92915050565b6000602082840312156110eb576110ea610d40565b5b60006110f9848285016110c0565b91505092915050565b7f44796e6f207472616e73666572206661696c6564000000000000000000000000600082015250565b6000611138601483610ff5565b915061114382611102565b602082019050919050565b600060208201905081810360008301526111678161112b565b9050919050565b60006040820190506111836000830185610f89565b6111906020830184610f23565b9392505050565b7f55534443207472616e73666572206661696c6564000000000000000000000000600082015250565b60006111cd601483610ff5565b91506111d882611197565b602082019050919050565b600060208201905081810360008301526111fc816111c0565b905091905056fea2646970667358221220cbac62b93967405ad3b0a5f4bb4572c9efef58983cd196c18a39035cdadb320b64736f6c63430008180033","opcodes":"PUSH1 0x80 PUSH1 0x40 MSTORE CALLVALUE DUP1 ISZERO PUSH3 0x11 JUMPI PUSH1 0x0 DUP1 REVERT JUMPDEST POP PUSH1 0x40 MLOAD PUSH3 0x1578 CODESIZE SUB DUP1 PUSH3 0x1578 DUP4 CODECOPY DUP2 DUP2 ADD PUSH1 0x40 MSTORE DUP2 ADD SWAP1 PUSH3 0x37 SWAP2 SWAP1 PUSH3 0x2A5 JUMP JUMPDEST PUSH3 0x48 DUP2 PUSH3 0xD2 PUSH1 0x20 SHL PUSH1 0x20 SHR JUMP JUMPDEST DUP3 PUSH1 0x0 DUP1 PUSH2 0x100 EXP DUP2 SLOAD DUP2 PUSH20 0xFFFFFFFFFFFFFFFFFFFFFFFFFFFFFFFFFFFFFFFF MUL NOT AND SWAP1 DUP4 PUSH20 0xFFFFFFFFFFFFFFFFFFFFFFFFFFFFFFFFFFFFFFFF AND MUL OR SWAP1 SSTORE POP DUP2 PUSH1 0x1 PUSH1 0x0 PUSH2 0x100 EXP DUP2 SLOAD DUP2 PUSH20 0xFFFFFFFFFFFFFFFFFFFFFFFFFFFFFFFFFFFFFFFF MUL NOT AND SWAP1 DUP4 PUSH20 0xFFFFFFFFFFFFFFFFFFFFFFFFFFFFFFFFFFFFFFFF AND MUL OR SWAP1 SSTORE POP POP POP POP PUSH3 0x32F JUMP JUMPDEST PUSH3 0xE3 DUP2 PUSH3 0x11F PUSH1 0x20 SHL PUSH1 0x20 SHR JUMP JUMPDEST PUSH32 0x6F0CA3C021D03DAEFC1E88745E6FAECC6726274689554C9D7512E2C2C0567DFE DUP2 PUSH1 0x40 MLOAD PUSH3 0x114 SWAP2 SWAP1 PUSH3 0x312 JUMP JUMPDEST PUSH1 0x40 MLOAD DUP1 SWAP2 SUB SWAP1 LOG1 POP JUMP JUMPDEST PUSH3 0x12F PUSH3 0x1F1 PUSH1 0x20 SHL PUSH1 0x20 SHR JUMP JUMPDEST ISZERO PUSH3 0x197 JUMPI PUSH32 0xFFFFFFFFFFFFFFFFFFFFFFFFFFFFFFFFFFFFFFFFFFFFFFFFFFFFFFFF74873927 DUP2 PUSH1 0x60 SHL PUSH1 0x60 SHR SWAP2 POP DUP2 DUP2 SLOAD PUSH32 0x8BE0079C531659141344CD1FD0A4F28419497F9722A3DAAFE3B4186F6B6457E0 PUSH1 0x0 DUP1 LOG3 DUP2 ISZERO PUSH1 0xFF SHL DUP3 OR DUP2 SSTORE POP PUSH3 0x1EE JUMP JUMPDEST PUSH32 0xFFFFFFFFFFFFFFFFFFFFFFFFFFFFFFFFFFFFFFFFFFFFFFFFFFFFFFFF74873927 DUP2 PUSH1 0x60 SHL PUSH1 0x60 SHR SWAP2 POP DUP2 DUP2 SLOAD PUSH32 0x8BE0079C531659141344CD1FD0A4F28419497F9722A3DAAFE3B4186F6B6457E0 PUSH1 0x0 DUP1 LOG3 DUP2 DUP2 SSTORE POP JUMPDEST POP JUMP JUMPDEST PUSH1 0x0 SWAP1 JUMP JUMPDEST PUSH1 0x0 DUP1 REVERT JUMPDEST PUSH1 0x0 PUSH20 0xFFFFFFFFFFFFFFFFFFFFFFFFFFFFFFFFFFFFFFFF DUP3 AND SWAP1 POP SWAP2 SWAP1 POP JUMP JUMPDEST PUSH1 0x0 PUSH3 0x228 DUP3 PUSH3 0x1FB JUMP JUMPDEST SWAP1 POP SWAP2 SWAP1 POP JUMP JUMPDEST PUSH1 0x0 PUSH3 0x23C DUP3 PUSH3 0x21B JUMP JUMPDEST SWAP1 POP SWAP2 SWAP1 POP JUMP JUMPDEST PUSH3 0x24E DUP2 PUSH3 0x22F JUMP JUMPDEST DUP2 EQ PUSH3 0x25A JUMPI PUSH1 0x0 DUP1 REVERT JUMPDEST POP JUMP JUMPDEST PUSH1 0x0 DUP2 MLOAD SWAP1 POP PUSH3 0x26E DUP2 PUSH3 0x243 JUMP JUMPDEST SWAP3 SWAP2 POP POP JUMP JUMPDEST PUSH3 0x27F DUP2 PUSH3 0x21B JUMP JUMPDEST DUP2 EQ PUSH3 0x28B JUMPI PUSH1 0x0 DUP1 REVERT JUMPDEST POP JUMP JUMPDEST PUSH1 0x0 DUP2 MLOAD SWAP1 POP PUSH3 0x29F DUP2 PUSH3 0x274 JUMP JUMPDEST SWAP3 SWAP2 POP POP JUMP JUMPDEST PUSH1 0x0 DUP1 PUSH1 0x0 PUSH1 0x60 DUP5 DUP7 SUB SLT ISZERO PUSH3 0x2C1 JUMPI PUSH3 0x2C0 PUSH3 0x1F6 JUMP JUMPDEST JUMPDEST PUSH1 0x0 PUSH3 0x2D1 DUP7 DUP3 DUP8 ADD PUSH3 0x25D JUMP JUMPDEST SWAP4 POP POP PUSH1 0x20 PUSH3 0x2E4 DUP7 DUP3 DUP8 ADD PUSH3 0x28E JUMP JUMPDEST SWAP3 POP POP PUSH1 0x40 PUSH3 0x2F7 DUP7 DUP3 DUP8 ADD PUSH3 0x28E JUMP JUMPDEST SWAP2 POP POP SWAP3 POP SWAP3 POP SWAP3 JUMP JUMPDEST PUSH3 0x30C DUP2 PUSH3 0x21B JUMP JUMPDEST DUP3 MSTORE POP POP JUMP JUMPDEST PUSH1 0x0 PUSH1 0x20 DUP3 ADD SWAP1 POP PUSH3 0x329 PUSH1 0x0 DUP4 ADD DUP5 PUSH3 0x301 JUMP JUMPDEST SWAP3 SWAP2 POP POP JUMP JUMPDEST PUSH2 0x1239 DUP1 PUSH3 0x33F PUSH1 0x0 CODECOPY PUSH1 0x0 RETURN INVALID PUSH1 0x80 PUSH1 0x40 MSTORE PUSH1 0x4 CALLDATASIZE LT PUSH2 0x12E JUMPI PUSH1 0x0 CALLDATALOAD PUSH1 0xE0 SHR DUP1 PUSH4 0x514E62FC GT PUSH2 0xAB JUMPI DUP1 PUSH4 0x99374642 GT PUSH2 0x6F JUMPI DUP1 PUSH4 0x99374642 EQ PUSH2 0x361 JUMPI DUP1 PUSH4 0xA29508FC EQ PUSH2 0x39E JUMPI DUP1 PUSH4 0xA72B8DB9 EQ PUSH2 0x3C9 JUMPI DUP1 PUSH4 0xF04E283E EQ PUSH2 0x3F2 JUMPI DUP1 PUSH4 0xF2FDE38B EQ PUSH2 0x40E JUMPI DUP1 PUSH4 0xFEE81CF4 EQ PUSH2 0x42A JUMPI PUSH2 0x135 JUMP JUMPDEST DUP1 PUSH4 0x514E62FC EQ PUSH2 0x2BA JUMPI DUP1 PUSH4 0x54D1F13D EQ PUSH2 0x2F7 JUMPI DUP1 PUSH4 0x715018A6 EQ PUSH2 0x301 JUMPI DUP1 PUSH4 0x75B238FC EQ PUSH2 0x30B JUMPI DUP1 PUSH4 0x8DA5CB5B EQ PUSH2 0x336 JUMPI PUSH2 0x135 JUMP JUMPDEST DUP1 PUSH4 0x2D4D0AD7 GT PUSH2 0xF2 JUMPI DUP1 PUSH4 0x2D4D0AD7 EQ PUSH2 0x1E2 JUMPI DUP1 PUSH4 0x2DE94807 EQ PUSH2 0x20D JUMPI DUP1 PUSH4 0x3E413BEE EQ PUSH2 0x24A JUMPI DUP1 PUSH4 0x472905CA EQ PUSH2 0x275 JUMPI DUP1 PUSH4 0x4A4EE7B1 EQ PUSH2 0x29E JUMPI PUSH2 0x135 JUMP JUMPDEST DUP1 PUSH4 0x183A4F6E EQ PUSH2 0x13A JUMPI DUP1 PUSH4 0x1BDA77E1 EQ PUSH2 0x156 JUMPI DUP1 PUSH4 0x1C10893F EQ PUSH2 0x17F JUMPI DUP1 PUSH4 0x1CD64DF4 EQ PUSH2 0x19B JUMPI DUP1 PUSH4 0x25692962 EQ PUSH2 0x1D8 JUMPI PUSH2 0x135 JUMP JUMPDEST CALLDATASIZE PUSH2 0x135 JUMPI STOP JUMPDEST PUSH1 0x0 DUP1 REVERT JUMPDEST PUSH2 0x154 PUSH1 0x4 DUP1 CALLDATASIZE SUB DUP2 ADD SWAP1 PUSH2 0x14F SWAP2 SWAP1 PUSH2 0xD7B JUMP JUMPDEST PUSH2 0x467 JUMP JUMPDEST STOP JUMPDEST CALLVALUE DUP1 ISZERO PUSH2 0x162 JUMPI PUSH1 0x0 DUP1 REVERT JUMPDEST POP PUSH2 0x17D PUSH1 0x4 DUP1 CALLDATASIZE SUB DUP2 ADD SWAP1 PUSH2 0x178 SWAP2 SWAP1 PUSH2 0xD7B JUMP JUMPDEST PUSH2 0x474 JUMP JUMPDEST STOP JUMPDEST PUSH2 0x199 PUSH1 0x4 DUP1 CALLDATASIZE SUB DUP2 ADD SWAP1 PUSH2 0x194 SWAP2 SWAP1 PUSH2 0xE06 JUMP JUMPDEST PUSH2 0x711 JUMP JUMPDEST STOP JUMPDEST CALLVALUE DUP1 ISZERO PUSH2 0x1A7 JUMPI PUSH1 0x0 DUP1 REVERT JUMPDEST POP PUSH2 0x1C2 PUSH1 0x4 DUP1 CALLDATASIZE SUB DUP2 ADD SWAP1 PUSH2 0x1BD SWAP2 SWAP1 PUSH2 0xE06 JUMP JUMPDEST PUSH2 0x7A8 JUMP JUMPDEST PUSH1 0x40 MLOAD PUSH2 0x1CF SWAP2 SWAP1 PUSH2 0xE61 JUMP JUMPDEST PUSH1 0x40 MLOAD DUP1 SWAP2 SUB SWAP1 RETURN JUMPDEST PUSH2 0x1E0 PUSH2 0x7BF JUMP JUMPDEST STOP JUMPDEST CALLVALUE DUP1 ISZERO PUSH2 0x1EE JUMPI PUSH1 0x0 DUP1 REVERT JUMPDEST POP PUSH2 0x1F7 PUSH2 0x813 JUMP JUMPDEST PUSH1 0x40 MLOAD PUSH2 0x204 SWAP2 SWAP1 PUSH2 0xEDB JUMP JUMPDEST PUSH1 0x40 MLOAD DUP1 SWAP2 SUB SWAP1 RETURN JUMPDEST CALLVALUE DUP1 ISZERO PUSH2 0x219 JUMPI PUSH1 0x0 DUP1 REVERT JUMPDEST POP PUSH2 0x234 PUSH1 0x4 DUP1 CALLDATASIZE SUB DUP2 ADD SWAP1 PUSH2 0x22F SWAP2 SWAP1 PUSH2 0xEF6 JUMP JUMPDEST PUSH2 0x837 JUMP JUMPDEST PUSH1 0x40 MLOAD PUSH2 0x241 SWAP2 SWAP1 PUSH2 0xF32 JUMP JUMPDEST PUSH1 0x40 MLOAD DUP1 SWAP2 SUB SWAP1 RETURN JUMPDEST CALLVALUE DUP1 ISZERO PUSH2 0x256 JUMPI PUSH1 0x0 DUP1 REVERT JUMPDEST POP PUSH2 0x25F PUSH2 0x880 JUMP JUMPDEST PUSH1 0x40 MLOAD PUSH2 0x26C SWAP2 SWAP1 PUSH2 0xF6E JUMP JUMPDEST PUSH1 0x40 MLOAD DUP1 SWAP2 SUB SWAP1 RETURN JUMPDEST CALLVALUE DUP1 ISZERO PUSH2 0x281 JUMPI PUSH1 0x0 DUP1 REVERT JUMPDEST POP PUSH2 0x29C PUSH1 0x4 DUP1 CALLDATASIZE SUB DUP2 ADD SWAP1 PUSH2 0x297 SWAP2 SWAP1 PUSH2 0xEF6 JUMP JUMPDEST PUSH2 0x8A6 JUMP JUMPDEST STOP JUMPDEST PUSH2 0x2B8 PUSH1 0x4 DUP1 CALLDATASIZE SUB DUP2 ADD SWAP1 PUSH2 0x2B3 SWAP2 SWAP1 PUSH2 0xE06 JUMP JUMPDEST PUSH2 0x938 JUMP JUMPDEST STOP JUMPDEST CALLVALUE DUP1 ISZERO PUSH2 0x2C6 JUMPI PUSH1 0x0 DUP1 REVERT JUMPDEST POP PUSH2 0x2E1 PUSH1 0x4 DUP1 CALLDATASIZE SUB DUP2 ADD SWAP1 PUSH2 0x2DC SWAP2 SWAP1 PUSH2 0xE06 JUMP JUMPDEST PUSH2 0x9CE JUMP JUMPDEST PUSH1 0x40 MLOAD PUSH2 0x2EE SWAP2 SWAP1 PUSH2 0xE61 JUMP JUMPDEST PUSH1 0x40 MLOAD DUP1 SWAP2 SUB SWAP1 RETURN JUMPDEST PUSH2 0x2FF PUSH2 0x9E6 JUMP JUMPDEST STOP JUMPDEST PUSH2 0x309 PUSH2 0xA22 JUMP JUMPDEST STOP JUMPDEST CALLVALUE DUP1 ISZERO PUSH2 0x317 JUMPI PUSH1 0x0 DUP1 REVERT JUMPDEST POP PUSH2 0x320 PUSH2 0xA36 JUMP JUMPDEST PUSH1 0x40 MLOAD PUSH2 0x32D SWAP2 SWAP1 PUSH2 0xF32 JUMP JUMPDEST PUSH1 0x40 MLOAD DUP1 SWAP2 SUB SWAP1 RETURN JUMPDEST CALLVALUE DUP1 ISZERO PUSH2 0x342 JUMPI PUSH1 0x0 DUP1 REVERT JUMPDEST POP PUSH2 0x34B PUSH2 0xA3B JUMP JUMPDEST PUSH1 0x40 MLOAD PUSH2 0x358 SWAP2 SWAP1 PUSH2 0xF98 JUMP JUMPDEST PUSH1 0x40 MLOAD DUP1 SWAP2 SUB SWAP1 RETURN JUMPDEST CALLVALUE DUP1 ISZERO PUSH2 0x36D JUMPI PUSH1 0x0 DUP1 REVERT JUMPDEST POP PUSH2 0x388 PUSH1 0x4 DUP1 CALLDATASIZE SUB DUP2 ADD SWAP1 PUSH2 0x383 SWAP2 SWAP1 PUSH2 0xEF6 JUMP JUMPDEST PUSH2 0xA64 JUMP JUMPDEST PUSH1 0x40 MLOAD PUSH2 0x395 SWAP2 SWAP1 PUSH2 0xF32 JUMP JUMPDEST PUSH1 0x40 MLOAD DUP1 SWAP2 SUB SWAP1 RETURN JUMPDEST CALLVALUE DUP1 ISZERO PUSH2 0x3AA JUMPI PUSH1 0x0 DUP1 REVERT JUMPDEST POP PUSH2 0x3B3 PUSH2 0xA7C JUMP JUMPDEST PUSH1 0x40 MLOAD PUSH2 0x3C0 SWAP2 SWAP1 PUSH2 0xF32 JUMP JUMPDEST PUSH1 0x40 MLOAD DUP1 SWAP2 SUB SWAP1 RETURN JUMPDEST CALLVALUE DUP1 ISZERO PUSH2 0x3D5 JUMPI PUSH1 0x0 DUP1 REVERT JUMPDEST POP PUSH2 0x3F0 PUSH1 0x4 DUP1 CALLDATASIZE SUB DUP2 ADD SWAP1 PUSH2 0x3EB SWAP2 SWAP1 PUSH2 0xD7B JUMP JUMPDEST PUSH2 0xA81 JUMP JUMPDEST STOP JUMPDEST PUSH2 0x40C PUSH1 0x4 DUP1 CALLDATASIZE SUB DUP2 ADD SWAP1 PUSH2 0x407 SWAP2 SWAP1 PUSH2 0xEF6 JUMP JUMPDEST PUSH2 0xA8D JUMP JUMPDEST STOP JUMPDEST PUSH2 0x428 PUSH1 0x4 DUP1 CALLDATASIZE SUB DUP2 ADD SWAP1 PUSH2 0x423 SWAP2 SWAP1 PUSH2 0xEF6 JUMP JUMPDEST PUSH2 0xACE JUMP JUMPDEST STOP JUMPDEST CALLVALUE DUP1 ISZERO PUSH2 0x436 JUMPI PUSH1 0x0 DUP1 REVERT JUMPDEST POP PUSH2 0x451 PUSH1 0x4 DUP1 CALLDATASIZE SUB DUP2 ADD SWAP1 PUSH2 0x44C SWAP2 SWAP1 PUSH2 0xEF6 JUMP JUMPDEST PUSH2 0xAF8 JUMP JUMPDEST PUSH1 0x40 MLOAD PUSH2 0x45E SWAP2 SWAP1 PUSH2 0xF32 JUMP JUMPDEST PUSH1 0x40 MLOAD DUP1 SWAP2 SUB SWAP1 RETURN JUMPDEST PUSH2 0x471 CALLER DUP3 PUSH2 0xB13 JUMP JUMPDEST POP JUMP JUMPDEST PUSH1 0x0 DUP1 SLOAD SWAP1 PUSH2 0x100 EXP SWAP1 DIV PUSH20 0xFFFFFFFFFFFFFFFFFFFFFFFFFFFFFFFFFFFFFFFF AND PUSH20 0xFFFFFFFFFFFFFFFFFFFFFFFFFFFFFFFFFFFFFFFF AND PUSH4 0x70A08231 CALLER PUSH1 0x40 MLOAD DUP3 PUSH4 0xFFFFFFFF AND PUSH1 0xE0 SHL DUP2 MSTORE PUSH1 0x4 ADD PUSH2 0x4CD SWAP2 SWAP1 PUSH2 0xF98 JUMP JUMPDEST PUSH1 0x20 PUSH1 0x40 MLOAD DUP1 DUP4 SUB DUP2 DUP7 GAS STATICCALL ISZERO DUP1 ISZERO PUSH2 0x4EA JUMPI RETURNDATASIZE PUSH1 0x0 DUP1 RETURNDATACOPY RETURNDATASIZE PUSH1 0x0 REVERT JUMPDEST POP POP POP POP PUSH1 0x40 MLOAD RETURNDATASIZE PUSH1 0x1F NOT PUSH1 0x1F DUP3 ADD AND DUP3 ADD DUP1 PUSH1 0x40 MSTORE POP DUP2 ADD SWAP1 PUSH2 0x50E SWAP2 SWAP1 PUSH2 0xFC8 JUMP JUMPDEST DUP2 LT ISZERO PUSH2 0x550 JUMPI PUSH1 0x40 MLOAD PUSH32 0x8C379A000000000000000000000000000000000000000000000000000000000 DUP2 MSTORE PUSH1 0x4 ADD PUSH2 0x547 SWAP1 PUSH2 0x1052 JUMP JUMPDEST PUSH1 0x40 MLOAD DUP1 SWAP2 SUB SWAP1 REVERT JUMPDEST PUSH1 0x0 DUP1 SLOAD SWAP1 PUSH2 0x100 EXP SWAP1 DIV PUSH20 0xFFFFFFFFFFFFFFFFFFFFFFFFFFFFFFFFFFFFFFFF AND PUSH20 0xFFFFFFFFFFFFFFFFFFFFFFFFFFFFFFFFFFFFFFFF AND PUSH4 0x23B872DD CALLER ADDRESS DUP5 PUSH1 0x40 MLOAD DUP5 PUSH4 0xFFFFFFFF AND PUSH1 0xE0 SHL DUP2 MSTORE PUSH1 0x4 ADD PUSH2 0x5AD SWAP4 SWAP3 SWAP2 SWAP1 PUSH2 0x1072 JUMP JUMPDEST PUSH1 0x20 PUSH1 0x40 MLOAD DUP1 DUP4 SUB DUP2 PUSH1 0x0 DUP8 GAS CALL ISZERO DUP1 ISZERO PUSH2 0x5CC JUMPI RETURNDATASIZE PUSH1 0x0 DUP1 RETURNDATACOPY RETURNDATASIZE PUSH1 0x0 REVERT JUMPDEST POP POP POP POP PUSH1 0x40 MLOAD RETURNDATASIZE PUSH1 0x1F NOT PUSH1 0x1F DUP3 ADD AND DUP3 ADD DUP1 PUSH1 0x40 MSTORE POP DUP2 ADD SWAP1 PUSH2 0x5F0 SWAP2 SWAP1 PUSH2 0x10D5 JUMP JUMPDEST PUSH2 0x62F JUMPI PUSH1 0x40 MLOAD PUSH32 0x8C379A000000000000000000000000000000000000000000000000000000000 DUP2 MSTORE PUSH1 0x4 ADD PUSH2 0x626 SWAP1 PUSH2 0x114E JUMP JUMPDEST PUSH1 0x40 MLOAD DUP1 SWAP2 SUB SWAP1 REVERT JUMPDEST PUSH1 0x1 PUSH1 0x0 SWAP1 SLOAD SWAP1 PUSH2 0x100 EXP SWAP1 DIV PUSH20 0xFFFFFFFFFFFFFFFFFFFFFFFFFFFFFFFFFFFFFFFF AND PUSH20 0xFFFFFFFFFFFFFFFFFFFFFFFFFFFFFFFFFFFFFFFF AND PUSH4 0xA9059CBB CALLER DUP4 PUSH1 0x40 MLOAD DUP4 PUSH4 0xFFFFFFFF AND PUSH1 0xE0 SHL DUP2 MSTORE PUSH1 0x4 ADD PUSH2 0x68C SWAP3 SWAP2 SWAP1 PUSH2 0x116E JUMP JUMPDEST PUSH1 0x20 PUSH1 0x40 MLOAD DUP1 DUP4 SUB DUP2 PUSH1 0x0 DUP8 GAS CALL ISZERO DUP1 ISZERO PUSH2 0x6AB JUMPI RETURNDATASIZE PUSH1 0x0 DUP1 RETURNDATACOPY RETURNDATASIZE PUSH1 0x0 REVERT JUMPDEST POP POP POP POP PUSH1 0x40 MLOAD RETURNDATASIZE PUSH1 0x1F NOT PUSH1 0x1F DUP3 ADD AND DUP3 ADD DUP1 PUSH1 0x40 MSTORE POP DUP2 ADD SWAP1 PUSH2 0x6CF SWAP2 SWAP1 PUSH2 0x10D5 JUMP JUMPDEST PUSH2 0x70E JUMPI PUSH1 0x40 MLOAD PUSH32 0x8C379A000000000000000000000000000000000000000000000000000000000 DUP2 MSTORE PUSH1 0x4 ADD PUSH2 0x705 SWAP1 PUSH2 0x11E3 JUMP JUMPDEST PUSH1 0x40 MLOAD DUP1 SWAP2 SUB SWAP1 REVERT JUMPDEST POP JUMP JUMPDEST PUSH1 0x1 PUSH2 0x71C DUP2 PUSH2 0xB23 JUMP JUMPDEST PUSH2 0x726 DUP4 DUP4 PUSH2 0xB5A JUMP JUMPDEST PUSH1 0x2 DUP1 PUSH1 0x0 DUP6 PUSH20 0xFFFFFFFFFFFFFFFFFFFFFFFFFFFFFFFFFFFFFFFF AND PUSH20 0xFFFFFFFFFFFFFFFFFFFFFFFFFFFFFFFFFFFFFFFF AND DUP2 MSTORE PUSH1 0x20 ADD SWAP1 DUP2 MSTORE PUSH1 0x20 ADD PUSH1 0x0 KECCAK256 DUP2 SWAP1 SSTORE POP PUSH32 0xB15C52CB3537C8C419F7D18C14643C18E2A220E4595EF9951C7606287A7D247F DUP4 DUP4 PUSH1 0x40 MLOAD PUSH2 0x79B SWAP3 SWAP2 SWAP1 PUSH2 0x116E JUMP JUMPDEST PUSH1 0x40 MLOAD DUP1 SWAP2 SUB SWAP1 LOG1 POP POP POP JUMP JUMPDEST PUSH1 0x0 DUP2 DUP3 PUSH2 0x7B5 DUP6 PUSH2 0x837 JUMP JUMPDEST AND EQ SWAP1 POP SWAP3 SWAP2 POP POP JUMP JUMPDEST PUSH1 0x0 PUSH2 0x7C9 PUSH2 0xB6A JUMP JUMPDEST PUSH8 0xFFFFFFFFFFFFFFFF AND TIMESTAMP ADD SWAP1 POP PUSH4 0x389A75E1 PUSH1 0xC MSTORE CALLER PUSH1 0x0 MSTORE DUP1 PUSH1 0x20 PUSH1 0xC KECCAK256 SSTORE CALLER PUSH32 0xDBF36A107DA19E49527A7176A1BABF963B4B0FF8CDE35EE35D6CD8F1F9AC7E1D PUSH1 0x0 DUP1 LOG2 POP JUMP JUMPDEST PUSH1 0x0 DUP1 SLOAD SWAP1 PUSH2 0x100 EXP SWAP1 DIV PUSH20 0xFFFFFFFFFFFFFFFFFFFFFFFFFFFFFFFFFFFFFFFF AND DUP2 JUMP JUMPDEST PUSH1 0x0 PUSH1 0x2 PUSH1 0x0 DUP4 PUSH20 0xFFFFFFFFFFFFFFFFFFFFFFFFFFFFFFFFFFFFFFFF AND PUSH20 0xFFFFFFFFFFFFFFFFFFFFFFFFFFFFFFFFFFFFFFFF AND DUP2 MSTORE PUSH1 0x20 ADD SWAP1 DUP2 MSTORE PUSH1 0x20 ADD PUSH1 0x0 KECCAK256 SLOAD SWAP1 POP SWAP2 SWAP1 POP JUMP JUMPDEST PUSH1 0x1 PUSH1 0x0 SWAP1 SLOAD SWAP1 PUSH2 0x100 EXP SWAP1 DIV PUSH20 0xFFFFFFFFFFFFFFFFFFFFFFFFFFFFFFFFFFFFFFFF AND DUP2 JUMP JUMPDEST PUSH2 0x8AE PUSH2 0xB75 JUMP JUMPDEST PUSH2 0x8B9 DUP2 PUSH1 0x1 PUSH2 0x711 JUMP JUMPDEST PUSH1 0x1 PUSH1 0x2 PUSH1 0x0 DUP4 PUSH20 0xFFFFFFFFFFFFFFFFFFFFFFFFFFFFFFFFFFFFFFFF AND PUSH20 0xFFFFFFFFFFFFFFFFFFFFFFFFFFFFFFFFFFFFFFFF AND DUP2 MSTORE PUSH1 0x20 ADD SWAP1 DUP2 MSTORE PUSH1 0x20 ADD PUSH1 0x0 KECCAK256 DUP2 SWAP1 SSTORE POP PUSH32 0x4D3C66BED87BA44A967FE349E441514F9004B0F0C63927AA0A59706BCB5FE138 DUP2 PUSH1 0x40 MLOAD PUSH2 0x92D SWAP2 SWAP1 PUSH2 0xF98 JUMP JUMPDEST PUSH1 0x40 MLOAD DUP1 SWAP2 SUB SWAP1 LOG1 POP JUMP JUMPDEST PUSH1 0x1 PUSH2 0x943 DUP2 PUSH2 0xB23 JUMP JUMPDEST PUSH2 0x94D DUP4 DUP4 PUSH2 0xB13 JUMP JUMPDEST PUSH1 0x2 PUSH1 0x0 DUP5 PUSH20 0xFFFFFFFFFFFFFFFFFFFFFFFFFFFFFFFFFFFFFFFF AND PUSH20 0xFFFFFFFFFFFFFFFFFFFFFFFFFFFFFFFFFFFFFFFF AND DUP2 MSTORE PUSH1 0x20 ADD SWAP1 DUP2 MSTORE PUSH1 0x20 ADD PUSH1 0x0 KECCAK256 PUSH1 0x0 SWAP1 SSTORE PUSH32 0xB420A774A5F31CCD70E2A03DDF80F3DD93235E2011FBFF00190E5009D6C22A31 DUP4 DUP4 PUSH1 0x40 MLOAD PUSH2 0x9C1 SWAP3 SWAP2 SWAP1 PUSH2 0x116E JUMP JUMPDEST PUSH1 0x40 MLOAD DUP1 SWAP2 SUB SWAP1 LOG1 POP POP POP JUMP JUMPDEST PUSH1 0x0 DUP1 DUP3 PUSH2 0x9DB DUP6 PUSH2 0x837 JUMP JUMPDEST AND EQ ISZERO SWAP1 POP SWAP3 SWAP2 POP POP JUMP JUMPDEST PUSH4 0x389A75E1 PUSH1 0xC MSTORE CALLER PUSH1 0x0 MSTORE PUSH1 0x0 PUSH1 0x20 PUSH1 0xC KECCAK256 SSTORE CALLER PUSH32 0xFA7B8EAB7DA67F412CC9575ED43464468F9BFBAE89D1675917346CA6D8FE3C92 PUSH1 0x0 DUP1 LOG2 JUMP JUMPDEST PUSH2 0xA2A PUSH2 0xB75 JUMP JUMPDEST PUSH2 0xA34 PUSH1 0x0 PUSH2 0xBAD JUMP JUMPDEST JUMP JUMPDEST PUSH1 0x1 DUP2 JUMP JUMPDEST PUSH1 0x0 PUSH32 0xFFFFFFFFFFFFFFFFFFFFFFFFFFFFFFFFFFFFFFFFFFFFFFFFFFFFFFFF74873927 SLOAD SWAP1 POP SWAP1 JUMP JUMPDEST PUSH1 0x2 PUSH1 0x20 MSTORE DUP1 PUSH1 0x0 MSTORE PUSH1 0x40 PUSH1 0x0 KECCAK256 PUSH1 0x0 SWAP2 POP SWAP1 POP SLOAD DUP2 JUMP JUMPDEST PUSH1 0x2 DUP2 JUMP JUMPDEST PUSH2 0xA8A DUP2 PUSH2 0xBF0 JUMP JUMPDEST POP JUMP JUMPDEST PUSH2 0xA95 PUSH2 0xB75 JUMP JUMPDEST PUSH4 0x389A75E1 PUSH1 0xC MSTORE DUP1 PUSH1 0x0 MSTORE PUSH1 0x20 PUSH1 0xC KECCAK256 DUP1 SLOAD TIMESTAMP GT ISZERO PUSH2 0xABD JUMPI PUSH4 0x6F5E8818 PUSH1 0x0 MSTORE PUSH1 0x4 PUSH1 0x1C REVERT JUMPDEST PUSH1 0x0 DUP2 SSTORE POP PUSH2 0xACB DUP2 PUSH2 0xBAD JUMP JUMPDEST POP JUMP JUMPDEST PUSH2 0xAD6 PUSH2 0xB75 JUMP JUMPDEST DUP1 PUSH1 0x60 SHL PUSH2 0xAEC JUMPI PUSH4 0x7448FBAE PUSH1 0x0 MSTORE PUSH1 0x4 PUSH1 0x1C REVERT JUMPDEST PUSH2 0xAF5 DUP2 PUSH2 0xBAD JUMP JUMPDEST POP JUMP JUMPDEST PUSH1 0x0 PUSH4 0x389A75E1 PUSH1 0xC MSTORE DUP2 PUSH1 0x0 MSTORE PUSH1 0x20 PUSH1 0xC KECCAK256 SLOAD SWAP1 POP SWAP2 SWAP1 POP JUMP JUMPDEST PUSH2 0xB1F DUP3 DUP3 PUSH1 0x0 PUSH2 0xC19 JUMP JUMPDEST POP POP JUMP JUMPDEST PUSH4 0x8B78C6D8 NOT SLOAD CALLER EQ PUSH2 0xB57 JUMPI PUSH4 0x8B78C6D8 PUSH1 0xC MSTORE CALLER PUSH1 0x0 MSTORE DUP1 PUSH1 0x20 PUSH1 0xC KECCAK256 SLOAD AND PUSH2 0xB56 JUMPI PUSH4 0x82B42900 PUSH1 0x0 MSTORE PUSH1 0x4 PUSH1 0x1C REVERT JUMPDEST JUMPDEST POP JUMP JUMPDEST PUSH2 0xB66 DUP3 DUP3 PUSH1 0x1 PUSH2 0xC19 JUMP JUMPDEST POP POP JUMP JUMPDEST PUSH1 0x0 PUSH3 0x2A300 SWAP1 POP SWAP1 JUMP JUMPDEST PUSH32 0xFFFFFFFFFFFFFFFFFFFFFFFFFFFFFFFFFFFFFFFFFFFFFFFFFFFFFFFF74873927 SLOAD CALLER EQ PUSH2 0xBAB JUMPI PUSH4 0x82B42900 PUSH1 0x0 MSTORE PUSH1 0x4 PUSH1 0x1C REVERT JUMPDEST JUMP JUMPDEST PUSH2 0xBB6 DUP2 PUSH2 0xC73 JUMP JUMPDEST PUSH32 0x6F0CA3C021D03DAEFC1E88745E6FAECC6726274689554C9D7512E2C2C0567DFE DUP2 PUSH1 0x40 MLOAD PUSH2 0xBE5 SWAP2 SWAP1 PUSH2 0xF98 JUMP JUMPDEST PUSH1 0x40 MLOAD DUP1 SWAP2 SUB SWAP1 LOG1 POP JUMP JUMPDEST PUSH4 0x8B78C6D8 PUSH1 0xC MSTORE CALLER PUSH1 0x0 MSTORE DUP1 PUSH1 0x20 PUSH1 0xC KECCAK256 SLOAD AND PUSH2 0xC16 JUMPI PUSH4 0x82B42900 PUSH1 0x0 MSTORE PUSH1 0x4 PUSH1 0x1C REVERT JUMPDEST POP JUMP JUMPDEST PUSH4 0x8B78C6D8 PUSH1 0xC MSTORE DUP3 PUSH1 0x0 MSTORE PUSH1 0x20 PUSH1 0xC KECCAK256 DUP1 SLOAD DUP4 DUP2 OR DUP4 PUSH2 0xC3C JUMPI DUP5 DUP3 AND DUP3 XOR SWAP1 POP JUMPDEST DUP1 DUP4 SSTORE DUP1 PUSH1 0xC MLOAD PUSH1 0x60 SHR PUSH32 0x715AD5CE61FC9595C7B415289D59CF203F23A94FA06F04AF7E489A0A76E1FE26 PUSH1 0x0 DUP1 LOG3 POP POP POP POP POP POP JUMP JUMPDEST PUSH2 0xC7B PUSH2 0xD3B JUMP JUMPDEST ISZERO PUSH2 0xCE1 JUMPI PUSH32 0xFFFFFFFFFFFFFFFFFFFFFFFFFFFFFFFFFFFFFFFFFFFFFFFFFFFFFFFF74873927 DUP2 PUSH1 0x60 SHL PUSH1 0x60 SHR SWAP2 POP DUP2 DUP2 SLOAD PUSH32 0x8BE0079C531659141344CD1FD0A4F28419497F9722A3DAAFE3B4186F6B6457E0 PUSH1 0x0 DUP1 LOG3 DUP2 ISZERO PUSH1 0xFF SHL DUP3 OR DUP2 SSTORE POP PUSH2 0xD38 JUMP JUMPDEST PUSH32 0xFFFFFFFFFFFFFFFFFFFFFFFFFFFFFFFFFFFFFFFFFFFFFFFFFFFFFFFF74873927 DUP2 PUSH1 0x60 SHL PUSH1 0x60 SHR SWAP2 POP DUP2 DUP2 SLOAD PUSH32 0x8BE0079C531659141344CD1FD0A4F28419497F9722A3DAAFE3B4186F6B6457E0 PUSH1 0x0 DUP1 LOG3 DUP2 DUP2 SSTORE POP JUMPDEST POP JUMP JUMPDEST PUSH1 0x0 SWAP1 JUMP JUMPDEST PUSH1 0x0 DUP1 REVERT JUMPDEST PUSH1 0x0 DUP2 SWAP1 POP SWAP2 SWAP1 POP JUMP JUMPDEST PUSH2 0xD58 DUP2 PUSH2 0xD45 JUMP JUMPDEST DUP2 EQ PUSH2 0xD63 JUMPI PUSH1 0x0 DUP1 REVERT JUMPDEST POP JUMP JUMPDEST PUSH1 0x0 DUP2 CALLDATALOAD SWAP1 POP PUSH2 0xD75 DUP2 PUSH2 0xD4F JUMP JUMPDEST SWAP3 SWAP2 POP POP JUMP JUMPDEST PUSH1 0x0 PUSH1 0x20 DUP3 DUP5 SUB SLT ISZERO PUSH2 0xD91 JUMPI PUSH2 0xD90 PUSH2 0xD40 JUMP JUMPDEST JUMPDEST PUSH1 0x0 PUSH2 0xD9F DUP5 DUP3 DUP6 ADD PUSH2 0xD66 JUMP JUMPDEST SWAP2 POP POP SWAP3 SWAP2 POP POP JUMP JUMPDEST PUSH1 0x0 PUSH20 0xFFFFFFFFFFFFFFFFFFFFFFFFFFFFFFFFFFFFFFFF DUP3 AND SWAP1 POP SWAP2 SWAP1 POP JUMP JUMPDEST PUSH1 0x0 PUSH2 0xDD3 DUP3 PUSH2 0xDA8 JUMP JUMPDEST SWAP1 POP SWAP2 SWAP1 POP JUMP JUMPDEST PUSH2 0xDE3 DUP2 PUSH2 0xDC8 JUMP JUMPDEST DUP2 EQ PUSH2 0xDEE JUMPI PUSH1 0x0 DUP1 REVERT JUMPDEST POP JUMP JUMPDEST PUSH1 0x0 DUP2 CALLDATALOAD SWAP1 POP PUSH2 0xE00 DUP2 PUSH2 0xDDA JUMP JUMPDEST SWAP3 SWAP2 POP POP JUMP JUMPDEST PUSH1 0x0 DUP1 PUSH1 0x40 DUP4 DUP6 SUB SLT ISZERO PUSH2 0xE1D JUMPI PUSH2 0xE1C PUSH2 0xD40 JUMP JUMPDEST JUMPDEST PUSH1 0x0 PUSH2 0xE2B DUP6 DUP3 DUP7 ADD PUSH2 0xDF1 JUMP JUMPDEST SWAP3 POP POP PUSH1 0x20 PUSH2 0xE3C DUP6 DUP3 DUP7 ADD PUSH2 0xD66 JUMP JUMPDEST SWAP2 POP POP SWAP3 POP SWAP3 SWAP1 POP JUMP JUMPDEST PUSH1 0x0 DUP2 ISZERO ISZERO SWAP1 POP SWAP2 SWAP1 POP JUMP JUMPDEST PUSH2 0xE5B DUP2 PUSH2 0xE46 JUMP JUMPDEST DUP3 MSTORE POP POP JUMP JUMPDEST PUSH1 0x0 PUSH1 0x20 DUP3 ADD SWAP1 POP PUSH2 0xE76 PUSH1 0x0 DUP4 ADD DUP5 PUSH2 0xE52 JUMP JUMPDEST SWAP3 SWAP2 POP POP JUMP JUMPDEST PUSH1 0x0 DUP2 SWAP1 POP SWAP2 SWAP1 POP JUMP JUMPDEST PUSH1 0x0 PUSH2 0xEA1 PUSH2 0xE9C PUSH2 0xE97 DUP5 PUSH2 0xDA8 JUMP JUMPDEST PUSH2 0xE7C JUMP JUMPDEST PUSH2 0xDA8 JUMP JUMPDEST SWAP1 POP SWAP2 SWAP1 POP JUMP JUMPDEST PUSH1 0x0 PUSH2 0xEB3 DUP3 PUSH2 0xE86 JUMP JUMPDEST SWAP1 POP SWAP2 SWAP1 POP JUMP JUMPDEST PUSH1 0x0 PUSH2 0xEC5 DUP3 PUSH2 0xEA8 JUMP JUMPDEST SWAP1 POP SWAP2 SWAP1 POP JUMP JUMPDEST PUSH2 0xED5 DUP2 PUSH2 0xEBA JUMP JUMPDEST DUP3 MSTORE POP POP JUMP JUMPDEST PUSH1 0x0 PUSH1 0x20 DUP3 ADD SWAP1 POP PUSH2 0xEF0 PUSH1 0x0 DUP4 ADD DUP5 PUSH2 0xECC JUMP JUMPDEST SWAP3 SWAP2 POP POP JUMP JUMPDEST PUSH1 0x0 PUSH1 0x20 DUP3 DUP5 SUB SLT ISZERO PUSH2 0xF0C JUMPI PUSH2 0xF0B PUSH2 0xD40 JUMP JUMPDEST JUMPDEST PUSH1 0x0 PUSH2 0xF1A DUP5 DUP3 DUP6 ADD PUSH2 0xDF1 JUMP JUMPDEST SWAP2 POP POP SWAP3 SWAP2 POP POP JUMP JUMPDEST PUSH2 0xF2C DUP2 PUSH2 0xD45 JUMP JUMPDEST DUP3 MSTORE POP POP JUMP JUMPDEST PUSH1 0x0 PUSH1 0x20 DUP3 ADD SWAP1 POP PUSH2 0xF47 PUSH1 0x0 DUP4 ADD DUP5 PUSH2 0xF23 JUMP JUMPDEST SWAP3 SWAP2 POP POP JUMP JUMPDEST PUSH1 0x0 PUSH2 0xF58 DUP3 PUSH2 0xEA8 JUMP JUMPDEST SWAP1 POP SWAP2 SWAP1 POP JUMP JUMPDEST PUSH2 0xF68 DUP2 PUSH2 0xF4D JUMP JUMPDEST DUP3 MSTORE POP POP JUMP JUMPDEST PUSH1 0x0 PUSH1 0x20 DUP3 ADD SWAP1 POP PUSH2 0xF83 PUSH1 0x0 DUP4 ADD DUP5 PUSH2 0xF5F JUMP JUMPDEST SWAP3 SWAP2 POP POP JUMP JUMPDEST PUSH2 0xF92 DUP2 PUSH2 0xDC8 JUMP JUMPDEST DUP3 MSTORE POP POP JUMP JUMPDEST PUSH1 0x0 PUSH1 0x20 DUP3 ADD SWAP1 POP PUSH2 0xFAD PUSH1 0x0 DUP4 ADD DUP5 PUSH2 0xF89 JUMP JUMPDEST SWAP3 SWAP2 POP POP JUMP JUMPDEST PUSH1 0x0 DUP2 MLOAD SWAP1 POP PUSH2 0xFC2 DUP2 PUSH2 0xD4F JUMP JUMPDEST SWAP3 SWAP2 POP POP JUMP JUMPDEST PUSH1 0x0 PUSH1 0x20 DUP3 DUP5 SUB SLT ISZERO PUSH2 0xFDE JUMPI PUSH2 0xFDD PUSH2 0xD40 JUMP JUMPDEST JUMPDEST PUSH1 0x0 PUSH2 0xFEC DUP5 DUP3 DUP6 ADD PUSH2 0xFB3 JUMP JUMPDEST SWAP2 POP POP SWAP3 SWAP2 POP POP JUMP JUMPDEST PUSH1 0x0 DUP3 DUP3 MSTORE PUSH1 0x20 DUP3 ADD SWAP1 POP SWAP3 SWAP2 POP POP JUMP JUMPDEST PUSH32 0x4E6F7420656E6F7567682062616C616E63650000000000000000000000000000 PUSH1 0x0 DUP3 ADD MSTORE POP JUMP JUMPDEST PUSH1 0x0 PUSH2 0x103C PUSH1 0x12 DUP4 PUSH2 0xFF5 JUMP JUMPDEST SWAP2 POP PUSH2 0x1047 DUP3 PUSH2 0x1006 JUMP JUMPDEST PUSH1 0x20 DUP3 ADD SWAP1 POP SWAP2 SWAP1 POP JUMP JUMPDEST PUSH1 0x0 PUSH1 0x20 DUP3 ADD SWAP1 POP DUP2 DUP2 SUB PUSH1 0x0 DUP4 ADD MSTORE PUSH2 0x106B DUP2 PUSH2 0x102F JUMP JUMPDEST SWAP1 POP SWAP2 SWAP1 POP JUMP JUMPDEST PUSH1 0x0 PUSH1 0x60 DUP3 ADD SWAP1 POP PUSH2 0x1087 PUSH1 0x0 DUP4 ADD DUP7 PUSH2 0xF89 JUMP JUMPDEST PUSH2 0x1094 PUSH1 0x20 DUP4 ADD DUP6 PUSH2 0xF89 JUMP JUMPDEST PUSH2 0x10A1 PUSH1 0x40 DUP4 ADD DUP5 PUSH2 0xF23 JUMP JUMPDEST SWAP5 SWAP4 POP POP POP POP JUMP JUMPDEST PUSH2 0x10B2 DUP2 PUSH2 0xE46 JUMP JUMPDEST DUP2 EQ PUSH2 0x10BD JUMPI PUSH1 0x0 DUP1 REVERT JUMPDEST POP JUMP JUMPDEST PUSH1 0x0 DUP2 MLOAD SWAP1 POP PUSH2 0x10CF DUP2 PUSH2 0x10A9 JUMP JUMPDEST SWAP3 SWAP2 POP POP JUMP JUMPDEST PUSH1 0x0 PUSH1 0x20 DUP3 DUP5 SUB SLT ISZERO PUSH2 0x10EB JUMPI PUSH2 0x10EA PUSH2 0xD40 JUMP JUMPDEST JUMPDEST PUSH1 0x0 PUSH2 0x10F9 DUP5 DUP3 DUP6 ADD PUSH2 0x10C0 JUMP JUMPDEST SWAP2 POP POP SWAP3 SWAP2 POP POP JUMP JUMPDEST PUSH32 0x44796E6F207472616E73666572206661696C6564000000000000000000000000 PUSH1 0x0 DUP3 ADD MSTORE POP JUMP JUMPDEST PUSH1 0x0 PUSH2 0x1138 PUSH1 0x14 DUP4 PUSH2 0xFF5 JUMP JUMPDEST SWAP2 POP PUSH2 0x1143 DUP3 PUSH2 0x1102 JUMP JUMPDEST PUSH1 0x20 DUP3 ADD SWAP1 POP SWAP2 SWAP1 POP JUMP JUMPDEST PUSH1 0x0 PUSH1 0x20 DUP3 ADD SWAP1 POP DUP2 DUP2 SUB PUSH1 0x0 DUP4 ADD MSTORE PUSH2 0x1167 DUP2 PUSH2 0x112B JUMP JUMPDEST SWAP1 POP SWAP2 SWAP1 POP JUMP JUMPDEST PUSH1 0x0 PUSH1 0x40 DUP3 ADD SWAP1 POP PUSH2 0x1183 PUSH1 0x0 DUP4 ADD DUP6 PUSH2 0xF89 JUMP JUMPDEST PUSH2 0x1190 PUSH1 0x20 DUP4 ADD DUP5 PUSH2 0xF23 JUMP JUMPDEST SWAP4 SWAP3 POP POP POP JUMP JUMPDEST PUSH32 0x55534443207472616E73666572206661696C6564000000000000000000000000 PUSH1 0x0 DUP3 ADD MSTORE POP JUMP JUMPDEST PUSH1 0x0 PUSH2 0x11CD PUSH1 0x14 DUP4 PUSH2 0xFF5 JUMP JUMPDEST SWAP2 POP PUSH2 0x11D8 DUP3 PUSH2 0x1197 JUMP JUMPDEST PUSH1 0x20 DUP3 ADD SWAP1 POP SWAP2 SWAP1 POP JUMP JUMPDEST PUSH1 0x0 PUSH1 0x20 DUP3 ADD SWAP1 POP DUP2 DUP2 SUB PUSH1 0x0 DUP4 ADD MSTORE PUSH2 0x11FC DUP2 PUSH2 0x11C0 JUMP JUMPDEST SWAP1 POP SWAP2 SWAP1 POP JUMP INVALID LOG2 PUSH5 0x6970667358 0x22 SLT KECCAK256 0xCB 0xAC PUSH3 0xB93967 BLOCKHASH GAS 0xD3 0xB0 0xA5 DELEGATECALL 0xBB GASLIMIT PUSH19 0xC9EFEF58983CD196C18A39035CDADB320B6473 PUSH16 0x6C634300081800330000000000000000 "},"methodIdentifiers":{"ADMIN_ROLE()":"75b238fc","SUPPLIER_ROLE()":"a29508fc","cancelOwnershipHandover()":"54d1f13d","checkRoles(uint256)":"a72b8db9","completeOwnershipHandover(address)":"f04e283e","dyno()":"2d4d0ad7","grantRoles(address,uint256)":"1c10893f","hasAllRoles(address,uint256)":"1cd64df4","hasAnyRole(address,uint256)":"514e62fc","makeAdmin(address)":"472905ca","owner()":"8da5cb5b","ownershipHandoverExpiresAt(address)":"fee81cf4","renounceOwnership()":"715018a6","renounceRoles(uint256)":"183a4f6e","requestOwnershipHandover()":"25692962","revokeRoles(address,uint256)":"4a4ee7b1","roles(address)":"99374642","rolesOf(address)":"2de94807","swapForUSDC(uint256)":"1bda77e1","transferOwnership(address)":"f2fde38b","usdc()":"3e413bee"}}}}}