{
  "_format": "hh-sol-artifact-1",
  "contractName": "DynoSeller",
  "sourceName": "src/DynoSeller.sol",
  "abi": [
    {
      "inputs": [
        {
          "internalType": "contract DynoToken",
          "name": "_dyno",
          "type": "address"
        },
        {
          "internalType": "address",
          "name": "_usdc",
          "type": "address"
        },
        {
          "internalType": "address",
          "name": "_owner",
          "type": "address"
        }
      ],
      "stateMutability": "nonpayable",
      "type": "constructor"
    },
    {
      "inputs": [],
      "name": "AlreadyInitialized",
      "type": "error"
    },
    {
      "inputs": [],
      "name": "NewOwnerIsZeroAddress",
      "type": "error"
    },
    {
      "inputs": [],
      "name": "NoHandoverRequest",
      "type": "error"
    },
    {
      "inputs": [],
      "name": "Unauthorized",
      "type": "error"
    },
    {
      "anonymous": false,
      "inputs": [
        {
          "indexed": true,
          "internalType": "address",
          "name": "pendingOwner",
          "type": "address"
        }
      ],
      "name": "OwnershipHandoverCanceled",
      "type": "event"
    },
    {
      "anonymous": false,
      "inputs": [
        {
          "indexed": true,
          "internalType": "address",
          "name": "pendingOwner",
          "type": "address"
        }
      ],
      "name": "OwnershipHandoverRequested",
      "type": "event"
    },
    {
      "anonymous": false,
      "inputs": [
        {
          "indexed": true,
          "internalType": "address",
          "name": "oldOwner",
          "type": "address"
        },
        {
          "indexed": true,
          "internalType": "address",
          "name": "newOwner",
          "type": "address"
        }
      ],
      "name": "OwnershipTransferred",
      "type": "event"
    },
    {
      "anonymous": false,
      "inputs": [
        {
          "indexed": true,
          "internalType": "address",
          "name": "user",
          "type": "address"
        },
        {
          "indexed": true,
          "internalType": "uint256",
          "name": "roles",
          "type": "uint256"
        }
      ],
      "name": "RolesUpdated",
      "type": "event"
    },
    {
      "anonymous": false,
      "inputs": [
        {
          "indexed": false,
          "internalType": "address",
          "name": "admin",
          "type": "address"
        }
      ],
      "name": "adminset",
      "type": "event"
    },
    {
      "anonymous": false,
      "inputs": [
        {
          "indexed": false,
          "internalType": "address",
          "name": "owner",
          "type": "address"
        }
      ],
      "name": "ownerset",
      "type": "event"
    },
    {
      "anonymous": false,
      "inputs": [
        {
          "indexed": false,
          "internalType": "address",
          "name": "user",
          "type": "address"
        },
        {
          "indexed": false,
          "internalType": "uint256",
          "name": "role",
          "type": "uint256"
        }
      ],
      "name": "role_granted",
      "type": "event"
    },
    {
      "anonymous": false,
      "inputs": [
        {
          "indexed": false,
          "internalType": "address",
          "name": "user",
          "type": "address"
        },
        {
          "indexed": false,
          "internalType": "uint256",
          "name": "role",
          "type": "uint256"
        }
      ],
      "name": "role_revoked",
      "type": "event"
    },
    {
      "inputs": [],
      "name": "ADMIN_ROLE",
      "outputs": [
        {
          "internalType": "uint256",
          "name": "",
          "type": "uint256"
        }
      ],
      "stateMutability": "view",
      "type": "function"
    },
    {
      "inputs": [],
      "name": "SUPPLIER_ROLE",
      "outputs": [
        {
          "internalType": "uint256",
          "name": "",
          "type": "uint256"
        }
      ],
      "stateMutability": "view",
      "type": "function"
    },
    {
      "inputs": [],
      "name": "cancelOwnershipHandover",
      "outputs": [],
      "stateMutability": "payable",
      "type": "function"
    },
    {
      "inputs": [
        {
          "internalType": "uint256",
          "name": "_roles",
          "type": "uint256"
        }
      ],
      "name": "checkRoles",
      "outputs": [],
      "stateMutability": "view",
      "type": "function"
    },
    {
      "inputs": [
        {
          "internalType": "address",
          "name": "pendingOwner",
          "type": "address"
        }
      ],
      "name": "completeOwnershipHandover",
      "outputs": [],
      "stateMutability": "payable",
      "type": "function"
    },
    {
      "inputs": [],
      "name": "dyno",
      "outputs": [
        {
          "internalType": "contract DynoToken",
          "name": "",
          "type": "address"
        }
      ],
      "stateMutability": "view",
      "type": "function"
    },
    {
      "inputs": [
        {
          "internalType": "address",
          "name": "user_",
          "type": "address"
        },
        {
          "internalType": "uint256",
          "name": "roles_",
          "type": "uint256"
        }
      ],
      "name": "grantRoles",
      "outputs": [],
      "stateMutability": "payable",
      "type": "function"
    },
    {
      "inputs": [
        {
          "internalType": "address",
          "name": "user",
          "type": "address"
        },
        {
          "internalType": "uint256",
          "name": "roles",
          "type": "uint256"
        }
      ],
      "name": "hasAllRoles",
      "outputs": [
        {
          "internalType": "bool",
          "name": "",
          "type": "bool"
        }
      ],
      "stateMutability": "view",
      "type": "function"
    },
    {
      "inputs": [
        {
          "internalType": "address",
          "name": "user",
          "type": "address"
        },
        {
          "internalType": "uint256",
          "name": "roles",
          "type": "uint256"
        }
      ],
      "name": "hasAnyRole",
      "outputs": [
        {
          "internalType": "bool",
          "name": "",
          "type": "bool"
        }
      ],
      "stateMutability": "view",
      "type": "function"
    },
    {
      "inputs": [
        {
          "internalType": "address",
          "name": "_admin",
          "type": "address"
        }
      ],
      "name": "makeAdmin",
      "outputs": [],
      "stateMutability": "nonpayable",
      "type": "function"
    },
    {
      "inputs": [],
      "name": "owner",
      "outputs": [
        {
          "internalType": "address",
          "name": "result",
          "type": "address"
        }
      ],
      "stateMutability": "view",
      "type": "function"
    },
    {
      "inputs": [
        {
          "internalType": "address",
          "name": "pendingOwner",
          "type": "address"
        }
      ],
      "name": "ownershipHandoverExpiresAt",
      "outputs": [
        {
          "internalType": "uint256",
          "name": "result",
          "type": "uint256"
        }
      ],
      "stateMutability": "view",
      "type": "function"
    },
    {
      "inputs": [],
      "name": "renounceOwnership",
      "outputs": [],
      "stateMutability": "payable",
      "type": "function"
    },
    {
      "inputs": [
        {
          "internalType": "uint256",
          "name": "roles",
          "type": "uint256"
        }
      ],
      "name": "renounceRoles",
      "outputs": [],
      "stateMutability": "payable",
      "type": "function"
    },
    {
      "inputs": [],
      "name": "requestOwnershipHandover",
      "outputs": [],
      "stateMutability": "payable",
      "type": "function"
    },
    {
      "inputs": [
        {
          "internalType": "address",
          "name": "user_",
          "type": "address"
        },
        {
          "internalType": "uint256",
          "name": "roles_",
          "type": "uint256"
        }
      ],
      "name": "revokeRoles",
      "outputs": [],
      "stateMutability": "payable",
      "type": "function"
    },
    {
      "inputs": [
        {
          "internalType": "address",
          "name": "",
          "type": "address"
        }
      ],
      "name": "roles",
      "outputs": [
        {
          "internalType": "uint256",
          "name": "",
          "type": "uint256"
        }
      ],
      "stateMutability": "view",
      "type": "function"
    },
    {
      "inputs": [
        {
          "internalType": "address",
          "name": "user",
          "type": "address"
        }
      ],
      "name": "rolesOf",
      "outputs": [
        {
          "internalType": "uint256",
          "name": "",
          "type": "uint256"
        }
      ],
      "stateMutability": "view",
      "type": "function"
    },
    {
      "inputs": [
        {
          "internalType": "uint256",
          "name": "amount",
          "type": "uint256"
        }
      ],
      "name": "swapForUSDC",
      "outputs": [],
      "stateMutability": "nonpayable",
      "type": "function"
    },
    {
      "inputs": [
        {
          "internalType": "address",
          "name": "newOwner",
          "type": "address"
        }
      ],
      "name": "transferOwnership",
      "outputs": [],
      "stateMutability": "payable",
      "type": "function"
    },
    {
      "inputs": [],
      "name": "usdc",
      "outputs": [
        {
          "internalType": "contract IUSDC",
          "name": "",
          "type": "address"
        }
      ],
      "stateMutability": "view",
      "type": "function"
    },
    {
      "stateMutability": "payable",
      "type": "receive"
    }
  ],
  "bytecode": "0x60806040523480156200001157600080fd5b5060405162001578380380620015788339818101604052810190620000379190620002a5565b6200004881620000d260201b60201c565b826000806101000a81548173ffffffffffffffffffffffffffffffffffffffff021916908373ffffffffffffffffffffffffffffffffffffffff16021790555081600160006101000a81548173ffffffffffffffffffffffffffffffffffffffff021916908373ffffffffffffffffffffffffffffffffffffffff1602179055505050506200032f565b620000e3816200011f60201b60201c565b7f6f0ca3c021d03daefc1e88745e6faecc6726274689554c9d7512e2c2c0567dfe8160405162000114919062000312565b60405180910390a150565b6200012f620001f160201b60201c565b1562000197577fffffffffffffffffffffffffffffffffffffffffffffffffffffffff748739278160601b60601c91508181547f8be0079c531659141344cd1fd0a4f28419497f9722a3daafe3b4186f6b6457e0600080a3811560ff1b8217815550620001ee565b7fffffffffffffffffffffffffffffffffffffffffffffffffffffffff748739278160601b60601c91508181547f8be0079c531659141344cd1fd0a4f28419497f9722a3daafe3b4186f6b6457e0600080a3818155505b50565b600090565b600080fd5b600073ffffffffffffffffffffffffffffffffffffffff82169050919050565b60006200022882620001fb565b9050919050565b60006200023c826200021b565b9050919050565b6200024e816200022f565b81146200025a57600080fd5b50565b6000815190506200026e8162000243565b92915050565b6200027f816200021b565b81146200028b57600080fd5b50565b6000815190506200029f8162000274565b92915050565b600080600060608486031215620002c157620002c0620001f6565b5b6000620002d1868287016200025d565b9350506020620002e4868287016200028e565b9250506040620002f7868287016200028e565b9150509250925092565b6200030c816200021b565b82525050565b600060208201905062000329600083018462000301565b92915050565b611239806200033f6000396000f3fe60806040526004361061012e5760003560e01c8063514e62fc116100ab578063993746421161006f5780639937464214610361578063a29508fc1461039e578063a72b8db9146103c9578063f04e283e146103f2578063f2fde38b1461040e578063fee81cf41461042a57610135565b8063514e62fc146102ba57806354d1f13d146102f7578063715018a61461030157806375b238fc1461030b5780638da5cb5b1461033657610135565b80632d4d0ad7116100f25780632d4d0ad7146101e25780632de948071461020d5780633e413bee1461024a578063472905ca146102755780634a4ee7b11461029e57610135565b8063183a4f6e1461013a5780631bda77e1146101565780631c10893f1461017f5780631cd64df41461019b57806325692962146101d857610135565b3661013557005b600080fd5b610154600480360381019061014f9190610d7b565b610467565b005b34801561016257600080fd5b5061017d60048036038101906101789190610d7b565b610474565b005b61019960048036038101906101949190610e06565b610711565b005b3480156101a757600080fd5b506101c260048036038101906101bd9190610e06565b6107a8565b6040516101cf9190610e61565b60405180910390f35b6101e06107bf565b005b3480156101ee57600080fd5b506101f7610813565b6040516102049190610edb565b60405180910390f35b34801561021957600080fd5b50610234600480360381019061022f9190610ef6565b610837565b6040516102419190610f32565b60405180910390f35b34801561025657600080fd5b5061025f610880565b60405161026c9190610f6e565b60405180910390f35b34801561028157600080fd5b5061029c60048036038101906102979190610ef6565b6108a6565b005b6102b860048036038101906102b39190610e06565b610938565b005b3480156102c657600080fd5b506102e160048036038101906102dc9190610e06565b6109ce565b6040516102ee9190610e61565b60405180910390f35b6102ff6109e6565b005b610309610a22565b005b34801561031757600080fd5b50610320610a36565b60405161032d9190610f32565b60405180910390f35b34801561034257600080fd5b5061034b610a3b565b6040516103589190610f98565b60405180910390f35b34801561036d57600080fd5b5061038860048036038101906103839190610ef6565b610a64565b6040516103959190610f32565b60405180910390f35b3480156103aa57600080fd5b506103b3610a7c565b6040516103c09190610f32565b60405180910390f35b3480156103d557600080fd5b506103f060048036038101906103eb9190610d7b565b610a81565b005b61040c60048036038101906104079190610ef6565b610a8d565b005b61042860048036038101906104239190610ef6565b610ace565b005b34801561043657600080fd5b50610451600480360381019061044c9190610ef6565b610af8565b60405161045e9190610f32565b60405180910390f35b6104713382610b13565b50565b60008054906101000a900473ffffffffffffffffffffffffffffffffffffffff1673ffffffffffffffffffffffffffffffffffffffff166370a08231336040518263ffffffff1660e01b81526004016104cd9190610f98565b602060405180830381865afa1580156104ea573d6000803e3d6000fd5b505050506040513d601f19601f8201168201806040525081019061050e9190610fc8565b811015610550576040517f08c379a000000000000000000000000000000000000000000000000000000000815260040161054790611052565b60405180910390fd5b60008054906101000a900473ffffffffffffffffffffffffffffffffffffffff1673ffffffffffffffffffffffffffffffffffffffff166323b872dd3330846040518463ffffffff1660e01b81526004016105ad93929190611072565b6020604051808303816000875af11580156105cc573d6000803e3d6000fd5b505050506040513d601f19601f820116820180604052508101906105f091906110d5565b61062f576040517f08c379a00000000000000000000000000000000000000000000000000000000081526004016106269061114e565b60405180910390fd5b600160009054906101000a900473ffffffffffffffffffffffffffffffffffffffff1673ffffffffffffffffffffffffffffffffffffffff1663a9059cbb33836040518363ffffffff1660e01b815260040161068c92919061116e565b6020604051808303816000875af11580156106ab573d6000803e3d6000fd5b505050506040513d601f19601f820116820180604052508101906106cf91906110d5565b61070e576040517f08c379a0000000000000000000000000000000000000000000000000000000008152600401610705906111e3565b60405180910390fd5b50565b600161071c81610b23565b6107268383610b5a565b60028060008573ffffffffffffffffffffffffffffffffffffffff1673ffffffffffffffffffffffffffffffffffffffff168152602001908152602001600020819055507fb15c52cb3537c8c419f7d18c14643c18e2a220e4595ef9951c7606287a7d247f838360405161079b92919061116e565b60405180910390a1505050565b600081826107b585610837565b1614905092915050565b60006107c9610b6a565b67ffffffffffffffff164201905063389a75e1600c5233600052806020600c2055337fdbf36a107da19e49527a7176a1babf963b4b0ff8cde35ee35d6cd8f1f9ac7e1d600080a250565b60008054906101000a900473ffffffffffffffffffffffffffffffffffffffff1681565b6000600260008373ffffffffffffffffffffffffffffffffffffffff1673ffffffffffffffffffffffffffffffffffffffff168152602001908152602001600020549050919050565b600160009054906101000a900473ffffffffffffffffffffffffffffffffffffffff1681565b6108ae610b75565b6108b9816001610711565b6001600260008373ffffffffffffffffffffffffffffffffffffffff1673ffffffffffffffffffffffffffffffffffffffff168152602001908152602001600020819055507f4d3c66bed87ba44a967fe349e441514f9004b0f0c63927aa0a59706bcb5fe1388160405161092d9190610f98565b60405180910390a150565b600161094381610b23565b61094d8383610b13565b600260008473ffffffffffffffffffffffffffffffffffffffff1673ffffffffffffffffffffffffffffffffffffffff168152602001908152602001600020600090557fb420a774a5f31ccd70e2a03ddf80f3dd93235e2011fbff00190e5009d6c22a3183836040516109c192919061116e565b60405180910390a1505050565b600080826109db85610837565b161415905092915050565b63389a75e1600c523360005260006020600c2055337ffa7b8eab7da67f412cc9575ed43464468f9bfbae89d1675917346ca6d8fe3c92600080a2565b610a2a610b75565b610a346000610bad565b565b600181565b60007fffffffffffffffffffffffffffffffffffffffffffffffffffffffff7487392754905090565b60026020528060005260406000206000915090505481565b600281565b610a8a81610bf0565b50565b610a95610b75565b63389a75e1600c52806000526020600c208054421115610abd57636f5e88186000526004601cfd5b6000815550610acb81610bad565b50565b610ad6610b75565b8060601b610aec57637448fbae6000526004601cfd5b610af581610bad565b50565b600063389a75e1600c52816000526020600c20549050919050565b610b1f82826000610c19565b5050565b638b78c6d819543314610b5757638b78c6d8600c5233600052806020600c205416610b56576382b429006000526004601cfd5b5b50565b610b6682826001610c19565b5050565b60006202a300905090565b7fffffffffffffffffffffffffffffffffffffffffffffffffffffffff74873927543314610bab576382b429006000526004601cfd5b565b610bb681610c73565b7f6f0ca3c021d03daefc1e88745e6faecc6726274689554c9d7512e2c2c0567dfe81604051610be59190610f98565b60405180910390a150565b638b78c6d8600c5233600052806020600c205416610c16576382b429006000526004601cfd5b50565b638b78c6d8600c52826000526020600c20805483811783610c3c57848216821890505b80835580600c5160601c7f715ad5ce61fc9595c7b415289d59cf203f23a94fa06f04af7e489a0a76e1fe26600080a3505050505050565b610c7b610d3b565b15610ce1577fffffffffffffffffffffffffffffffffffffffffffffffffffffffff748739278160601b60601c91508181547f8be0079c531659141344cd1fd0a4f28419497f9722a3daafe3b4186f6b6457e0600080a3811560ff1b8217815550610d38565b7fffffffffffffffffffffffffffffffffffffffffffffffffffffffff748739278160601b60601c91508181547f8be0079c531659141344cd1fd0a4f28419497f9722a3daafe3b4186f6b6457e0600080a3818155505b50565b600090565b600080fd5b6000819050919050565b610d5881610d45565b8114610d6357600080fd5b50565b600081359050610d7581610d4f565b92915050565b600060208284031215610d9157610d90610d40565b5b6000610d9f84828501610d66565b91505092915050565b600073ffffffffffffffffffffffffffffffffffffffff82169050919050565b6000610dd382610da8565b9050919050565b610de381610dc8565b8114610dee57600080fd5b50565b600081359050610e0081610dda565b92915050565b60008060408385031215610e1d57610e1c610d40565b5b6000610e2b85828601610df1565b9250506020610e3c85828601610d66565b9150509250929050565b60008115159050919050565b610e5b81610e46565b82525050565b6000602082019050610e766000830184610e52565b92915050565b6000819050919050565b6000610ea1610e9c610e9784610da8565b610e7c565b610da8565b9050919050565b6000610eb382610e86565b9050919050565b6000610ec582610ea8565b9050919050565b610ed581610eba565b82525050565b6000602082019050610ef06000830184610ecc565b92915050565b600060208284031215610f0c57610f0b610d40565b5b6000610f1a84828501610df1565b91505092915050565b610f2c81610d45565b82525050565b6000602082019050610f476000830184610f23565b92915050565b6000610f5882610ea8565b9050919050565b610f6881610f4d565b82525050565b6000602082019050610f836000830184610f5f565b92915050565b610f9281610dc8565b82525050565b6000602082019050610fad6000830184610f89565b92915050565b600081519050610fc281610d4f565b92915050565b600060208284031215610fde57610fdd610d40565b5b6000610fec84828501610fb3565b91505092915050565b600082825260208201905092915050565b7f4e6f7420656e6f7567682062616c616e63650000000000000000000000000000600082015250565b600061103c601283610ff5565b915061104782611006565b602082019050919050565b6000602082019050818103600083015261106b8161102f565b9050919050565b60006060820190506110876000830186610f89565b6110946020830185610f89565b6110a16040830184610f23565b949350505050565b6110b281610e46565b81146110bd57600080fd5b50565b6000815190506110cf816110a9565b92915050565b6000602082840312156110eb576110ea610d40565b5b60006110f9848285016110c0565b91505092915050565b7f44796e6f207472616e73666572206661696c6564000000000000000000000000600082015250565b6000611138601483610ff5565b915061114382611102565b602082019050919050565b600060208201905081810360008301526111678161112b565b9050919050565b60006040820190506111836000830185610f89565b6111906020830184610f23565b9392505050565b7f55534443207472616e73666572206661696c6564000000000000000000000000600082015250565b60006111cd601483610ff5565b91506111d882611197565b602082019050919050565b600060208201905081810360008301526111fc816111c0565b905091905056fea2646970667358221220cbac62b93967405ad3b0a5f4bb4572c9efef58983cd196c18a39035cdadb320b64736f6c63430008180033",
  "linkReferences": {},
  "deployedLinkReferences": {}
}