{
  "_format": "hh-sol-artifact-1",
  "contractName": "DynoBuyer",
  "sourceName": "src/DynoBuyer.sol",
  "abi": [
    {
      "inputs": [
        {
          "internalType": "address",
          "name": "_usdc",
          "type": "address"
        },
        {
          "internalType": "contract DynoToken",
          "name": "_dyno",
          "type": "address"
        },
        {
          "internalType": "address payable",
          "name": "_seller",
          "type": "address"
        }
      ],
      "stateMutability": "nonpayable",
      "type": "constructor"
    },
    {
      "inputs": [
        {
          "internalType": "uint256",
          "name": "amount",
          "type": "uint256"
        }
      ],
      "name": "buyDynoTokens",
      "outputs": [],
      "stateMutability": "nonpayable",
      "type": "function"
    },
    {
      "inputs": [
        {
          "internalType": "uint256",
          "name": "energy",
          "type": "uint256"
        },
        {
          "internalType": "address",
          "name": "sellerAddress",
          "type": "address"
        }
      ],
      "name": "buyEnergy",
      "outputs": [],
      "stateMutability": "nonpayable",
      "type": "function"
    },
    {
      "inputs": [
        {
          "internalType": "address",
          "name": "",
          "type": "address"
        }
      ],
      "name": "buyerBalance",
      "outputs": [
        {
          "internalType": "uint256",
          "name": "",
          "type": "uint256"
        }
      ],
      "stateMutability": "view",
      "type": "function"
    },
    {
      "inputs": [],
      "name": "dyno",
      "outputs": [
        {
          "internalType": "contract DynoToken",
          "name": "",
          "type": "address"
        }
      ],
      "stateMutability": "view",
      "type": "function"
    },
    {
      "inputs": [],
      "name": "seller",
      "outputs": [
        {
          "internalType": "contract DynoSeller",
          "name": "",
          "type": "address"
        }
      ],
      "stateMutability": "view",
      "type": "function"
    },
    {
      "inputs": [],
      "name": "usdc",
      "outputs": [
        {
          "internalType": "contract IUSDC",
          "name": "",
          "type": "address"
        }
      ],
      "stateMutability": "view",
      "type": "function"
    }
  ],
  "bytecode": "0x60806040523480156200001157600080fd5b5060405162000f1d38038062000f1d8339818101604052810190620000379190620001f6565b826000806101000a81548173ffffffffffffffffffffffffffffffffffffffff021916908373ffffffffffffffffffffffffffffffffffffffff16021790555081600160006101000a81548173ffffffffffffffffffffffffffffffffffffffff021916908373ffffffffffffffffffffffffffffffffffffffff16021790555080600260006101000a81548173ffffffffffffffffffffffffffffffffffffffff021916908373ffffffffffffffffffffffffffffffffffffffff16021790555050505062000252565b600080fd5b600073ffffffffffffffffffffffffffffffffffffffff82169050919050565b6000620001348262000107565b9050919050565b620001468162000127565b81146200015257600080fd5b50565b60008151905062000166816200013b565b92915050565b6000620001798262000127565b9050919050565b6200018b816200016c565b81146200019757600080fd5b50565b600081519050620001ab8162000180565b92915050565b6000620001be8262000107565b9050919050565b620001d081620001b1565b8114620001dc57600080fd5b50565b600081519050620001f081620001c5565b92915050565b60008060006060848603121562000212576200021162000102565b5b6000620002228682870162000155565b935050602062000235868287016200019a565b92505060406200024886828701620001df565b9150509250925092565b610cbb80620002626000396000f3fe608060405234801561001057600080fd5b50600436106100625760003560e01c806306b236221461006757806308551a53146100835780631bd60ae9146100a15780632d4d0ad7146100d157806339b960ba146100ef5780633e413bee1461010b575b600080fd5b610081600480360381019061007c919061070a565b610129565b005b61008b610362565b60405161009891906107b6565b60405180910390f35b6100bb60048036038101906100b6919061080f565b610388565b6040516100c8919061084b565b60405180910390f35b6100d96103a0565b6040516100e69190610899565b60405180910390f35b610109600480360381019061010491906108b4565b6103c6565b005b610113610618565b6040516101209190610915565b60405180910390f35b80600360003373ffffffffffffffffffffffffffffffffffffffff1673ffffffffffffffffffffffffffffffffffffffff1681526020019081526020016000206000828254610178919061095f565b9250508190555060008054906101000a900473ffffffffffffffffffffffffffffffffffffffff1673ffffffffffffffffffffffffffffffffffffffff166323b872dd33600260009054906101000a900473ffffffffffffffffffffffffffffffffffffffff16846040518463ffffffff1660e01b81526004016101fe939291906109a2565b6020604051808303816000875af115801561021d573d6000803e3d6000fd5b505050506040513d601f19601f820116820180604052508101906102419190610a11565b610280576040517f08c379a000000000000000000000000000000000000000000000000000000000815260040161027790610a9b565b60405180910390fd5b600160009054906101000a900473ffffffffffffffffffffffffffffffffffffffff1673ffffffffffffffffffffffffffffffffffffffff1663a9059cbb33836040518363ffffffff1660e01b81526004016102dd929190610abb565b6020604051808303816000875af11580156102fc573d6000803e3d6000fd5b505050506040513d601f19601f820116820180604052508101906103209190610a11565b61035f576040517f08c379a000000000000000000000000000000000000000000000000000000000815260040161035690610b30565b60405180910390fd5b50565b600260009054906101000a900473ffffffffffffffffffffffffffffffffffffffff1681565b60036020528060005260406000206000915090505481565b600160009054906101000a900473ffffffffffffffffffffffffffffffffffffffff1681565b60006103d18361063c565b9050600360003373ffffffffffffffffffffffffffffffffffffffff1673ffffffffffffffffffffffffffffffffffffffff16815260200190815260200160002054811115610455576040517f08c379a000000000000000000000000000000000000000000000000000000000815260040161044c90610b9c565b60405180910390fd5b60028060009054906101000a900473ffffffffffffffffffffffffffffffffffffffff1673ffffffffffffffffffffffffffffffffffffffff16632de94807846040518263ffffffff1660e01b81526004016104b19190610bbc565b602060405180830381865afa1580156104ce573d6000803e3d6000fd5b505050506040513d601f19601f820116820180604052508101906104f29190610bec565b14610532576040517f08c379a000000000000000000000000000000000000000000000000000000000815260040161052990610c65565b60405180910390fd5b600160009054906101000a900473ffffffffffffffffffffffffffffffffffffffff1673ffffffffffffffffffffffffffffffffffffffff166323b872dd3384846040518463ffffffff1660e01b8152600401610591939291906109a2565b6020604051808303816000875af11580156105b0573d6000803e3d6000fd5b505050506040513d601f19601f820116820180604052508101906105d49190610a11565b610613576040517f08c379a000000000000000000000000000000000000000000000000000000000815260040161060a90610b30565b60405180910390fd5b505050565b60008054906101000a900473ffffffffffffffffffffffffffffffffffffffff1681565b60008061065b68056bc75e2d631000008461066690919063ffffffff16565b905080915050919050565b600061067b83670de0b6b3a764000084610683565b905092915050565b6000827fffffffffffffffffffffffffffffffffffffffffffffffffffffffffffffffff04841183021582026106b857600080fd5b818385020460008385870206110190509392505050565b600080fd5b6000819050919050565b6106e7816106d4565b81146106f257600080fd5b50565b600081359050610704816106de565b92915050565b6000602082840312156107205761071f6106cf565b5b600061072e848285016106f5565b91505092915050565b600073ffffffffffffffffffffffffffffffffffffffff82169050919050565b6000819050919050565b600061077c61077761077284610737565b610757565b610737565b9050919050565b600061078e82610761565b9050919050565b60006107a082610783565b9050919050565b6107b081610795565b82525050565b60006020820190506107cb60008301846107a7565b92915050565b60006107dc82610737565b9050919050565b6107ec816107d1565b81146107f757600080fd5b50565b600081359050610809816107e3565b92915050565b600060208284031215610825576108246106cf565b5b6000610833848285016107fa565b91505092915050565b610845816106d4565b82525050565b6000602082019050610860600083018461083c565b92915050565b600061087182610761565b9050919050565b600061088382610866565b9050919050565b61089381610878565b82525050565b60006020820190506108ae600083018461088a565b92915050565b600080604083850312156108cb576108ca6106cf565b5b60006108d9858286016106f5565b92505060206108ea858286016107fa565b9150509250929050565b60006108ff82610866565b9050919050565b61090f816108f4565b82525050565b600060208201905061092a6000830184610906565b92915050565b7f4e487b7100000000000000000000000000000000000000000000000000000000600052601160045260246000fd5b600061096a826106d4565b9150610975836106d4565b925082820190508082111561098d5761098c610930565b5b92915050565b61099c816107d1565b82525050565b60006060820190506109b76000830186610993565b6109c46020830185610993565b6109d1604083018461083c565b949350505050565b60008115159050919050565b6109ee816109d9565b81146109f957600080fd5b50565b600081519050610a0b816109e5565b92915050565b600060208284031215610a2757610a266106cf565b5b6000610a35848285016109fc565b91505092915050565b600082825260208201905092915050565b7f55534443207472616e73666572206661696c6564000000000000000000000000600082015250565b6000610a85601483610a3e565b9150610a9082610a4f565b602082019050919050565b60006020820190508181036000830152610ab481610a78565b9050919050565b6000604082019050610ad06000830185610993565b610add602083018461083c565b9392505050565b7f44796e6f546f6b656e207472616e73666572206661696c656400000000000000600082015250565b6000610b1a601983610a3e565b9150610b2582610ae4565b602082019050919050565b60006020820190508181036000830152610b4981610b0d565b9050919050565b7f4e6f7420656e6f7567682062616c616e63650000000000000000000000000000600082015250565b6000610b86601283610a3e565b9150610b9182610b50565b602082019050919050565b60006020820190508181036000830152610bb581610b79565b9050919050565b6000602082019050610bd16000830184610993565b92915050565b600081519050610be6816106de565b92915050565b600060208284031215610c0257610c016106cf565b5b6000610c1084828501610bd7565b91505092915050565b7f4e6f7420612076616c69642073656c6c65720000000000000000000000000000600082015250565b6000610c4f601283610a3e565b9150610c5a82610c19565b602082019050919050565b60006020820190508181036000830152610c7e81610c42565b905091905056fea264697066735822122058e97827d1c36dd7c286f2ca0f162d8ff26bef5957e3a1edd26319f195726bb464736f6c63430008180033",
  "linkReferences": {},
  "deployedLinkReferences": {}
}